{
  "contractName": "DecentralBank",
  "abi": [
    {
      "inputs": [
        {
          "internalType": "contract RWD",
          "name": "_rwd",
          "type": "address"
        },
        {
          "internalType": "contract Tether",
          "name": "_tether",
          "type": "address"
        }
      ],
      "payable": false,
      "stateMutability": "nonpayable",
      "type": "constructor"
    },
    {
      "constant": true,
      "inputs": [
        {
          "internalType": "address",
          "name": "",
          "type": "address"
        }
      ],
      "name": "hasStaked",
      "outputs": [
        {
          "internalType": "bool",
          "name": "",
          "type": "bool"
        }
      ],
      "payable": false,
      "stateMutability": "view",
      "type": "function"
    },
    {
      "constant": true,
      "inputs": [
        {
          "internalType": "address",
          "name": "",
          "type": "address"
        }
      ],
      "name": "isStaking",
      "outputs": [
        {
          "internalType": "bool",
          "name": "",
          "type": "bool"
        }
      ],
      "payable": false,
      "stateMutability": "view",
      "type": "function"
    },
    {
      "constant": true,
      "inputs": [],
      "name": "name",
      "outputs": [
        {
          "internalType": "string",
          "name": "",
          "type": "string"
        }
      ],
      "payable": false,
      "stateMutability": "view",
      "type": "function"
    },
    {
      "constant": true,
      "inputs": [],
      "name": "owner",
      "outputs": [
        {
          "internalType": "address",
          "name": "",
          "type": "address"
        }
      ],
      "payable": false,
      "stateMutability": "view",
      "type": "function"
    },
    {
      "constant": true,
      "inputs": [],
      "name": "rwd",
      "outputs": [
        {
          "internalType": "contract RWD",
          "name": "",
          "type": "address"
        }
      ],
      "payable": false,
      "stateMutability": "view",
      "type": "function"
    },
    {
      "constant": true,
      "inputs": [
        {
          "internalType": "uint256",
          "name": "",
          "type": "uint256"
        }
      ],
      "name": "stakers",
      "outputs": [
        {
          "internalType": "address",
          "name": "",
          "type": "address"
        }
      ],
      "payable": false,
      "stateMutability": "view",
      "type": "function"
    },
    {
      "constant": true,
      "inputs": [
        {
          "internalType": "address",
          "name": "",
          "type": "address"
        }
      ],
      "name": "stakingBalance",
      "outputs": [
        {
          "internalType": "uint256",
          "name": "",
          "type": "uint256"
        }
      ],
      "payable": false,
      "stateMutability": "view",
      "type": "function"
    },
    {
      "constant": true,
      "inputs": [
        {
          "internalType": "address",
          "name": "",
          "type": "address"
        }
      ],
      "name": "startTime",
      "outputs": [
        {
          "internalType": "uint256",
          "name": "",
          "type": "uint256"
        }
      ],
      "payable": false,
      "stateMutability": "view",
      "type": "function"
    },
    {
      "constant": true,
      "inputs": [],
      "name": "tether",
      "outputs": [
        {
          "internalType": "contract Tether",
          "name": "",
          "type": "address"
        }
      ],
      "payable": false,
      "stateMutability": "view",
      "type": "function"
    },
    {
      "constant": true,
      "inputs": [
        {
          "internalType": "address",
          "name": "",
          "type": "address"
        }
      ],
      "name": "totalYield",
      "outputs": [
        {
          "internalType": "uint256",
          "name": "",
          "type": "uint256"
        }
      ],
      "payable": false,
      "stateMutability": "view",
      "type": "function"
    },
    {
      "constant": false,
      "inputs": [
        {
          "internalType": "uint256",
          "name": "_amount",
          "type": "uint256"
        }
      ],
      "name": "depositTokens",
      "outputs": [],
      "payable": false,
      "stateMutability": "nonpayable",
      "type": "function"
    },
    {
      "constant": false,
      "inputs": [
        {
          "internalType": "uint256",
          "name": "_amount",
          "type": "uint256"
        }
      ],
      "name": "unstakeTokens",
      "outputs": [],
      "payable": false,
      "stateMutability": "nonpayable",
      "type": "function"
    },
    {
      "constant": false,
      "inputs": [],
      "name": "issueTokens",
      "outputs": [],
      "payable": false,
      "stateMutability": "nonpayable",
      "type": "function"
    }
  ],
  "bytecode": "0x60806040526040518060400160405280600e81526020017f446563656e7472616c2042616e6b0000000000000000000000000000000000008152506000908051906020019061004f929190610166565b5034801561005c57600080fd5b5060405162001263380380620012638339818101604052604081101561008157600080fd5b81019080805190602001909291908051906020019092919050505081600360006101000a81548173ffffffffffffffffffffffffffffffffffffffff021916908373ffffffffffffffffffffffffffffffffffffffff16021790555080600260006101000a81548173ffffffffffffffffffffffffffffffffffffffff021916908373ffffffffffffffffffffffffffffffffffffffff16021790555033600160006101000a81548173ffffffffffffffffffffffffffffffffffffffff021916908373ffffffffffffffffffffffffffffffffffffffff160217905550505061020b565b828054600181600116156101000203166002900490600052602060002090601f016020900481019282601f106101a757805160ff19168380011785556101d5565b828001600101855582156101d5579182015b828111156101d45782518255916020019190600101906101b9565b5b5090506101e291906101e6565b5090565b61020891905b808211156102045760008160009055506001016101ec565b5090565b90565b611048806200021b6000396000f3fe608060405234801561001057600080fd5b50600436106100cf5760003560e01c80636e1dc66e1161008c578063b26dd04011610066578063b26dd04014610379578063c93c8f34146103d1578063dd49756e1461042d578063fd5e6dd11461045b576100cf565b80636e1dc66e1461027b5780636f49712b146102d35780638da5cb5b1461032f576100cf565b806306fdde03146100d45780631a8972d31461015757806345bc78ab146101a15780635efc071a146101f9578063608e4dd01461024357806360ab585214610271575b600080fd5b6100dc6104c9565b6040518080602001828103825283818151815260200191508051906020019080838360005b8381101561011c578082015181840152602081019050610101565b50505050905090810190601f1680156101495780820380516001836020036101000a031916815260200191505b509250505060405180910390f35b61015f610567565b604051808273ffffffffffffffffffffffffffffffffffffffff1673ffffffffffffffffffffffffffffffffffffffff16815260200191505060405180910390f35b6101e3600480360360208110156101b757600080fd5b81019080803573ffffffffffffffffffffffffffffffffffffffff16906020019092919050505061058d565b6040518082815260200191505060405180910390f35b6102016105a5565b604051808273ffffffffffffffffffffffffffffffffffffffff1673ffffffffffffffffffffffffffffffffffffffff16815260200191505060405180910390f35b61026f6004803603602081101561025957600080fd5b81019080803590602001909291905050506105cb565b005b6102796108a8565b005b6102bd6004803603602081101561029157600080fd5b81019080803573ffffffffffffffffffffffffffffffffffffffff169060200190929190505050610b09565b6040518082815260200191505060405180910390f35b610315600480360360208110156102e957600080fd5b81019080803573ffffffffffffffffffffffffffffffffffffffff169060200190929190505050610b21565b604051808215151515815260200191505060405180910390f35b610337610b41565b604051808273ffffffffffffffffffffffffffffffffffffffff1673ffffffffffffffffffffffffffffffffffffffff16815260200191505060405180910390f35b6103bb6004803603602081101561038f57600080fd5b81019080803573ffffffffffffffffffffffffffffffffffffffff169060200190929190505050610b67565b6040518082815260200191505060405180910390f35b610413600480360360208110156103e757600080fd5b81019080803573ffffffffffffffffffffffffffffffffffffffff169060200190929190505050610b7f565b604051808215151515815260200191505060405180910390f35b6104596004803603602081101561044357600080fd5b8101908080359060200190929190505050610b9f565b005b6104876004803603602081101561047157600080fd5b8101908080359060200190929190505050610fb2565b604051808273ffffffffffffffffffffffffffffffffffffffff1673ffffffffffffffffffffffffffffffffffffffff16815260200191505060405180910390f35b60008054600181600116156101000203166002900480601f01602080910402602001604051908101604052809291908181526020018280546001816001161561010002031660029004801561055f5780601f106105345761010080835404028352916020019161055f565b820191906000526020600020905b81548152906001019060200180831161054257829003601f168201915b505050505081565b600360009054906101000a900473ffffffffffffffffffffffffffffffffffffffff1681565b60056020528060005260406000206000915090505481565b600260009054906101000a900473ffffffffffffffffffffffffffffffffffffffff1681565b6000600560003373ffffffffffffffffffffffffffffffffffffffff1673ffffffffffffffffffffffffffffffffffffffff1681526020019081526020016000205490506001801561061d5750600081115b600760003373ffffffffffffffffffffffffffffffffffffffff1673ffffffffffffffffffffffffffffffffffffffff16815260200190815260200160002060006101000a81548160ff02191690831515021790556106c7576040517f08c379a0000000000000000000000000000000000000000000000000000000008152600401808060200182810382526025815260200180610fef6025913960400191505060405180910390fd5b600082905060009250600260009054906101000a900473ffffffffffffffffffffffffffffffffffffffff1673ffffffffffffffffffffffffffffffffffffffff1663a9059cbb33836040518363ffffffff1660e01b8152600401808373ffffffffffffffffffffffffffffffffffffffff1673ffffffffffffffffffffffffffffffffffffffff16815260200182815260200192505050602060405180830381600087803b15801561077957600080fd5b505af115801561078d573d6000803e3d6000fd5b505050506040513d60208110156107a357600080fd5b81019080805190602001909291905050505080600560003373ffffffffffffffffffffffffffffffffffffffff1673ffffffffffffffffffffffffffffffffffffffff168152602001908152602001600020600082825403925050819055506000600560003373ffffffffffffffffffffffffffffffffffffffff1673ffffffffffffffffffffffffffffffffffffffff1681526020019081526020016000205414156108a3576000600760003373ffffffffffffffffffffffffffffffffffffffff1673ffffffffffffffffffffffffffffffffffffffff16815260200190815260200160002060006101000a81548160ff0219169083151502179055505b505050565b600160009054906101000a900473ffffffffffffffffffffffffffffffffffffffff1673ffffffffffffffffffffffffffffffffffffffff163373ffffffffffffffffffffffffffffffffffffffff161461096b576040517f08c379a000000000000000000000000000000000000000000000000000000000815260040180806020018281038252601c8152602001807f5468652063616c6c6572206d75737420626520746865206f776e65720000000081525060200191505060405180910390fd5b60008090505b600480549050811015610b065760006004828154811061098d57fe5b9060005260206000200160009054906101000a900473ffffffffffffffffffffffffffffffffffffffff16905060006009600560008473ffffffffffffffffffffffffffffffffffffffff1673ffffffffffffffffffffffffffffffffffffffff1681526020019081526020016000205481610a0557fe5b0490506000811115610af757600360009054906101000a900473ffffffffffffffffffffffffffffffffffffffff1673ffffffffffffffffffffffffffffffffffffffff1663a9059cbb83836040518363ffffffff1660e01b8152600401808373ffffffffffffffffffffffffffffffffffffffff1673ffffffffffffffffffffffffffffffffffffffff16815260200182815260200192505050602060405180830381600087803b158015610aba57600080fd5b505af1158015610ace573d6000803e3d6000fd5b505050506040513d6020811015610ae457600080fd5b8101908080519060200190929190505050505b50508080600101915050610971565b50565b60086020528060005260406000206000915090505481565b60076020528060005260406000206000915054906101000a900460ff1681565b600160009054906101000a900473ffffffffffffffffffffffffffffffffffffffff1681565b60096020528060005260406000206000915090505481565b60066020528060005260406000206000915054906101000a900460ff1681565b60008111610c15576040517f08c379a00000000000000000000000000000000000000000000000000000000081526004018080602001828103825260128152602001807f616d6f756e742063616e6e6f742062652030000000000000000000000000000081525060200191505060405180910390fd5b60011515600760003373ffffffffffffffffffffffffffffffffffffffff1673ffffffffffffffffffffffffffffffffffffffff16815260200190815260200160002060009054906101000a90505050600260009054906101000a900473ffffffffffffffffffffffffffffffffffffffff1673ffffffffffffffffffffffffffffffffffffffff166323b872dd3330846040518463ffffffff1660e01b8152600401808473ffffffffffffffffffffffffffffffffffffffff1673ffffffffffffffffffffffffffffffffffffffff1681526020018373ffffffffffffffffffffffffffffffffffffffff1673ffffffffffffffffffffffffffffffffffffffff1681526020018281526020019350505050602060405180830381600087803b158015610d4257600080fd5b505af1158015610d56573d6000803e3d6000fd5b505050506040513d6020811015610d6c57600080fd5b81019080805190602001909291905050505080600560003373ffffffffffffffffffffffffffffffffffffffff1673ffffffffffffffffffffffffffffffffffffffff1681526020019081526020016000205401600560003373ffffffffffffffffffffffffffffffffffffffff1673ffffffffffffffffffffffffffffffffffffffff1681526020019081526020016000208190555042600860003373ffffffffffffffffffffffffffffffffffffffff1673ffffffffffffffffffffffffffffffffffffffff16815260200190815260200160002081905550600660003373ffffffffffffffffffffffffffffffffffffffff1673ffffffffffffffffffffffffffffffffffffffff16815260200190815260200160002060009054906101000a900460ff16610eff5760043390806001815401808255809150509060018203906000526020600020016000909192909190916101000a81548173ffffffffffffffffffffffffffffffffffffffff021916908373ffffffffffffffffffffffffffffffffffffffff160217905550505b6001600760003373ffffffffffffffffffffffffffffffffffffffff1673ffffffffffffffffffffffffffffffffffffffff16815260200190815260200160002060006101000a81548160ff0219169083151502179055506001600660003373ffffffffffffffffffffffffffffffffffffffff1673ffffffffffffffffffffffffffffffffffffffff16815260200190815260200160002060006101000a81548160ff02191690831515021790555050565b60048181548110610fbf57fe5b906000526020600020016000915054906101000a900473ffffffffffffffffffffffffffffffffffffffff168156fe7374616b696e672062616c616e63652063616e6e6f74206265206c657373207468616e2030a265627a7a72315820509ee074647de4ebd52fca40a9a8c180748ac798fec7fea2923ff6d6ef36080964736f6c63430005110032",
  "source": "pragma solidity ^0.5.0;\r\n\r\nimport './RWD.sol';\r\nimport './Tether.sol';\r\n\r\n\r\n\r\ncontract DecentralBank {\r\n    string public name = \"Decentral Bank\";\r\n    address public owner;\r\n    Tether public tether;  //bringing in the smart contract\r\n    RWD public rwd;\r\n\r\n    address[] public stakers;\r\n\r\n    //keepint track of amount the customers are staking\r\n    mapping(address => uint256) public stakingBalance;\r\n\r\n    mapping(address => bool) public hasStaked;\r\n    mapping(address => bool) public isStaking;\r\n\r\n    mapping(address => uint256) public startTime;\r\n\r\n    mapping(address => uint256) public  totalYield;\r\n\r\n\r\n\r\n    constructor(RWD _rwd ,Tether _tether) public {\r\n        rwd= _rwd;\r\n        tether= _tether;\r\n        owner = msg.sender;\r\n    }\r\n\r\n//third party transfer\r\nfunction depositTokens(uint256 _amount) public {\r\n\r\n  //require staking amount to be greater than 0\r\n  require(_amount > 0 ,'amount cannot be 0');\r\n\r\n  if(isStaking[msg.sender] == true) {\r\n\r\n    //   uint toTransfer = calculateYieldTotal(msg.sender);\r\n    //   totalYield += toTransfer;\r\n  }\r\n\r\n //Transfer the tether tokens to this contract address for lending\r\n  tether.transferFrom(msg.sender, address(this), _amount);\r\n\r\n  //update staking balance\r\n  stakingBalance[msg.sender] = stakingBalance[msg.sender] + _amount;\r\n\r\n  startTime[msg.sender] = block.timestamp;\r\n\r\n  //checking if this is there firt time staking and so adding int the array accordingly\r\n  if(!hasStaked[msg.sender]) {\r\n      stakers.push(msg.sender);\r\n  }\r\n \r\n isStaking[msg.sender]=true;\r\n hasStaked[msg.sender]=true;\r\n\r\n}\r\n\r\n\r\n//Unstake tokens\r\nfunction unstakeTokens(uint256 _amount) public{\r\n\r\n    uint balance=stakingBalance[msg.sender];\r\n\r\n    require(\r\n        isStaking[msg.sender] = true &&\r\n        balance > 0,\r\n        'staking balance cannot be less than 0'\r\n        );\r\n\r\n    // uint yieldTransfer = calculateYieldTotal(msg.sender);\r\n    // startTime[msg.sender] = block.timestamp;\r\n    uint balTransfer = _amount;\r\n    _amount = 0;\r\n\r\n    //transferring the staked tokens back into the msg.senders account from the decentral bank\r\n     tether.transfer(msg.sender,balTransfer);\r\n\r\n    //updating staking features\r\n    stakingBalance[msg.sender]-= balTransfer;\r\n    if(stakingBalance[msg.sender] == 0) {\r\n\r\n    isStaking[msg.sender]=false;\r\n\r\n    }\r\n}\r\n\r\n //issue token for deposting in the bank\r\n\r\n// //the owner can call the function accordingly to their wish and issue tokens to customers staking \r\n function issueTokens() public {\r\n  //only the owner can issue tokens \r\n  require(msg.sender == owner,'The caller must be the owner');\r\n\r\n  for(uint i=0;i<stakers.length;i++) {\r\n       address recipient = stakers[i];\r\n       uint staked_amount = stakingBalance[recipient] / 9;   //creating percentage incentivs for stakers\r\n       if(staked_amount > 0) {\r\n           rwd.transfer(recipient , staked_amount); //using transfer function from reward contract , as reward tokens are transferred\r\n       }\r\n    }  \r\n \r\n  }\r\n\r\n \r\n    // function calculateYieldTime(address user) public view returns(uint256){\r\n    //     uint256 end = block.timestamp;\r\n    //     uint256 totalTime = end - startTime[user];\r\n    //     return totalTime;\r\n    // }\r\n\r\n    // function calculateYieldTotal(address user) public view returns(uint256) {\r\n    //     uint256 time = calculateYieldTime(user) * 10**18;\r\n    //     uint256 rate = 86400;\r\n    //     uint256 timeRate = time / rate;\r\n    //     uint256 rawYield = (stakingBalance[user] * timeRate) / 10**18;\r\n    //     return rawYield;\r\n    // }\r\n\r\n    //   function withdrawYield() public {\r\n    //     uint256 toTransfer = calculateYieldTotal(msg.sender);\r\n\r\n    //     require(\r\n    //         toTransfer > 0 ||\r\n    //         totalYield[msg.sender] > 0,\r\n    //         \"Nothing to withdraw\"\r\n    //         );\r\n            \r\n    //     if(pmknBalance[msg.sender] != 0){\r\n    //         uint256 oldBalance = totalYield[msg.sender];\r\n    //         totalYield[msg.sender] = 0;\r\n    //         toTransfer += oldBalance;\r\n    //     }\r\n\r\n    //     startTime[msg.sender] = block.timestamp;\r\n    //     rwd.transfer(msg.sender, toTransfer);\r\n    // }\r\n\r\n}\r\n",
  "sourcePath": "C:\\Users\\Hp\\Desktop\\DAPP\\defi-staking-app-starter-main\\defi-staking-app-starter\\src\\contracts\\DecentralBank.sol",
  "compiler": {
    "name": "solc",
    "version": "0.5.17+commit.d19bba13.Emscripten.clang"
  },
  "schemaVersion": "3.4.3",
  "updatedAt": "2021-11-17T22:03:35.861Z",
  "networkType": "ethereum",
  "devdoc": {
    "methods": {}
  },
  "userdoc": {
    "methods": {}
  }
}