{
  "contractName": "DecentralBank",
  "abi": [
    {
      "inputs": [
        {
          "internalType": "contract RWD",
          "name": "_rwd",
          "type": "address"
        },
        {
          "internalType": "contract Tether",
          "name": "_tether",
          "type": "address"
        }
      ],
      "payable": false,
      "stateMutability": "nonpayable",
      "type": "constructor"
    },
    {
      "constant": true,
      "inputs": [
        {
          "internalType": "address",
          "name": "",
          "type": "address"
        }
      ],
      "name": "hasStaked",
      "outputs": [
        {
          "internalType": "bool",
          "name": "",
          "type": "bool"
        }
      ],
      "payable": false,
      "stateMutability": "view",
      "type": "function"
    },
    {
      "constant": true,
      "inputs": [
        {
          "internalType": "address",
          "name": "",
          "type": "address"
        }
      ],
      "name": "isStaking",
      "outputs": [
        {
          "internalType": "bool",
          "name": "",
          "type": "bool"
        }
      ],
      "payable": false,
      "stateMutability": "view",
      "type": "function"
    },
    {
      "constant": true,
      "inputs": [],
      "name": "name",
      "outputs": [
        {
          "internalType": "string",
          "name": "",
          "type": "string"
        }
      ],
      "payable": false,
      "stateMutability": "view",
      "type": "function"
    },
    {
      "constant": true,
      "inputs": [],
      "name": "owner",
      "outputs": [
        {
          "internalType": "address",
          "name": "",
          "type": "address"
        }
      ],
      "payable": false,
      "stateMutability": "view",
      "type": "function"
    },
    {
      "constant": true,
      "inputs": [],
      "name": "rwd",
      "outputs": [
        {
          "internalType": "contract RWD",
          "name": "",
          "type": "address"
        }
      ],
      "payable": false,
      "stateMutability": "view",
      "type": "function"
    },
    {
      "constant": true,
      "inputs": [
        {
          "internalType": "uint256",
          "name": "",
          "type": "uint256"
        }
      ],
      "name": "stakers",
      "outputs": [
        {
          "internalType": "address",
          "name": "",
          "type": "address"
        }
      ],
      "payable": false,
      "stateMutability": "view",
      "type": "function"
    },
    {
      "constant": true,
      "inputs": [
        {
          "internalType": "address",
          "name": "",
          "type": "address"
        }
      ],
      "name": "stakingBalance",
      "outputs": [
        {
          "internalType": "uint256",
          "name": "",
          "type": "uint256"
        }
      ],
      "payable": false,
      "stateMutability": "view",
      "type": "function"
    },
    {
      "constant": true,
      "inputs": [
        {
          "internalType": "address",
          "name": "",
          "type": "address"
        }
      ],
      "name": "startTime",
      "outputs": [
        {
          "internalType": "uint256",
          "name": "",
          "type": "uint256"
        }
      ],
      "payable": false,
      "stateMutability": "view",
      "type": "function"
    },
    {
      "constant": true,
      "inputs": [],
      "name": "tether",
      "outputs": [
        {
          "internalType": "contract Tether",
          "name": "",
          "type": "address"
        }
      ],
      "payable": false,
      "stateMutability": "view",
      "type": "function"
    },
    {
      "constant": true,
      "inputs": [
        {
          "internalType": "address",
          "name": "",
          "type": "address"
        }
      ],
      "name": "totalYield",
      "outputs": [
        {
          "internalType": "uint256",
          "name": "",
          "type": "uint256"
        }
      ],
      "payable": false,
      "stateMutability": "view",
      "type": "function"
    },
    {
      "constant": false,
      "inputs": [
        {
          "internalType": "uint256",
          "name": "_amount",
          "type": "uint256"
        }
      ],
      "name": "depositTokens",
      "outputs": [],
      "payable": false,
      "stateMutability": "nonpayable",
      "type": "function"
    },
    {
      "constant": false,
      "inputs": [
        {
          "internalType": "uint256",
          "name": "_amount",
          "type": "uint256"
        }
      ],
      "name": "unstakeTokens",
      "outputs": [],
      "payable": false,
      "stateMutability": "nonpayable",
      "type": "function"
    },
    {
      "constant": true,
      "inputs": [
        {
          "internalType": "address",
          "name": "user",
          "type": "address"
        }
      ],
      "name": "calculateYieldTime",
      "outputs": [
        {
          "internalType": "uint256",
          "name": "",
          "type": "uint256"
        }
      ],
      "payable": false,
      "stateMutability": "view",
      "type": "function"
    },
    {
      "constant": true,
      "inputs": [
        {
          "internalType": "address",
          "name": "user",
          "type": "address"
        }
      ],
      "name": "calculateYieldTotal",
      "outputs": [
        {
          "internalType": "uint256",
          "name": "",
          "type": "uint256"
        }
      ],
      "payable": false,
      "stateMutability": "view",
      "type": "function"
    },
    {
      "constant": false,
      "inputs": [],
      "name": "withdrawYield",
      "outputs": [],
      "payable": false,
      "stateMutability": "nonpayable",
      "type": "function"
    }
  ],
  "bytecode": "0x60806040526040518060400160405280600e81526020017f446563656e7472616c2042616e6b00000000000000000000000000000000000081525060009080519060200190620000519291906200016b565b503480156200005f57600080fd5b50604051620015a2380380620015a2833981810160405260408110156200008557600080fd5b81019080805190602001909291908051906020019092919050505081600360006101000a81548173ffffffffffffffffffffffffffffffffffffffff021916908373ffffffffffffffffffffffffffffffffffffffff16021790555080600260006101000a81548173ffffffffffffffffffffffffffffffffffffffff021916908373ffffffffffffffffffffffffffffffffffffffff16021790555033600160006101000a81548173ffffffffffffffffffffffffffffffffffffffff021916908373ffffffffffffffffffffffffffffffffffffffff16021790555050506200021a565b828054600181600116156101000203166002900490600052602060002090601f016020900481019282601f10620001ae57805160ff1916838001178555620001df565b82800160010185558215620001df579182015b82811115620001de578251825591602001919060010190620001c1565b5b509050620001ee9190620001f2565b5090565b6200021791905b8082111562000213576000816000905550600101620001f9565b5090565b90565b611378806200022a6000396000f3fe608060405234801561001057600080fd5b50600436106100f55760003560e01c80636f49712b11610097578063c93c8f3411610066578063c93c8f341461049d578063dd49756e146104f9578063e507a8a414610527578063fd5e6dd114610531576100f5565b80636f49712b146103475780638da5cb5b146103a3578063980d6116146103ed578063b26dd04014610445576100f5565b806345bc78ab116100d357806345bc78ab1461021f5780635efc071a14610277578063608e4dd0146102c15780636e1dc66e146102ef576100f5565b806306872661146100fa57806306fdde03146101525780631a8972d3146101d5575b600080fd5b61013c6004803603602081101561011057600080fd5b81019080803573ffffffffffffffffffffffffffffffffffffffff16906020019092919050505061059f565b6040518082815260200191505060405180910390f35b61015a610630565b6040518080602001828103825283818151815260200191508051906020019080838360005b8381101561019a57808201518184015260208101905061017f565b50505050905090810190601f1680156101c75780820380516001836020036101000a031916815260200191505b509250505060405180910390f35b6101dd6106ce565b604051808273ffffffffffffffffffffffffffffffffffffffff1673ffffffffffffffffffffffffffffffffffffffff16815260200191505060405180910390f35b6102616004803603602081101561023557600080fd5b81019080803573ffffffffffffffffffffffffffffffffffffffff1690602001909291905050506106f4565b6040518082815260200191505060405180910390f35b61027f61070c565b604051808273ffffffffffffffffffffffffffffffffffffffff1673ffffffffffffffffffffffffffffffffffffffff16815260200191505060405180910390f35b6102ed600480360360208110156102d757600080fd5b8101908080359060200190929190505050610732565b005b6103316004803603602081101561030557600080fd5b81019080803573ffffffffffffffffffffffffffffffffffffffff169060200190929190505050610aae565b6040518082815260200191505060405180910390f35b6103896004803603602081101561035d57600080fd5b81019080803573ffffffffffffffffffffffffffffffffffffffff169060200190929190505050610ac6565b604051808215151515815260200191505060405180910390f35b6103ab610ae6565b604051808273ffffffffffffffffffffffffffffffffffffffff1673ffffffffffffffffffffffffffffffffffffffff16815260200191505060405180910390f35b61042f6004803603602081101561040357600080fd5b81019080803573ffffffffffffffffffffffffffffffffffffffff169060200190929190505050610b0c565b6040518082815260200191505060405180910390f35b6104876004803603602081101561045b57600080fd5b81019080803573ffffffffffffffffffffffffffffffffffffffff169060200190929190505050610b62565b6040518082815260200191505060405180910390f35b6104df600480360360208110156104b357600080fd5b81019080803573ffffffffffffffffffffffffffffffffffffffff169060200190929190505050610b7a565b604051808215151515815260200191505060405180910390f35b6105256004803603602081101561050f57600080fd5b8101908080359060200190929190505050610b9a565b005b61052f611012565b005b61055d6004803603602081101561054757600080fd5b81019080803590602001909291905050506112e2565b604051808273ffffffffffffffffffffffffffffffffffffffff1673ffffffffffffffffffffffffffffffffffffffff16815260200191505060405180910390f35b600080670de0b6b3a76400006105b484610b0c565b029050600062015180905060008183816105ca57fe5b0490506000670de0b6b3a764000082600560008973ffffffffffffffffffffffffffffffffffffffff1673ffffffffffffffffffffffffffffffffffffffff16815260200190815260200160002054028161062157fe5b04905080945050505050919050565b60008054600181600116156101000203166002900480601f0160208091040260200160405190810160405280929190818152602001828054600181600116156101000203166002900480156106c65780601f1061069b576101008083540402835291602001916106c6565b820191906000526020600020905b8154815290600101906020018083116106a957829003601f168201915b505050505081565b600360009054906101000a900473ffffffffffffffffffffffffffffffffffffffff1681565b60056020528060005260406000206000915090505481565b600260009054906101000a900473ffffffffffffffffffffffffffffffffffffffff1681565b6000600560003373ffffffffffffffffffffffffffffffffffffffff1673ffffffffffffffffffffffffffffffffffffffff168152602001908152602001600020549050600180156107845750600081115b600760003373ffffffffffffffffffffffffffffffffffffffff1673ffffffffffffffffffffffffffffffffffffffff16815260200190815260200160002060006101000a81548160ff021916908315150217905561082e576040517f08c379a000000000000000000000000000000000000000000000000000000000815260040180806020018281038252602581526020018061131f6025913960400191505060405180910390fd5b60006108393361059f565b905080600960003373ffffffffffffffffffffffffffffffffffffffff1673ffffffffffffffffffffffffffffffffffffffff1681526020019081526020016000206000828254019250508190555042600860003373ffffffffffffffffffffffffffffffffffffffff1673ffffffffffffffffffffffffffffffffffffffff16815260200190815260200160002081905550600083905060009350600260009054906101000a900473ffffffffffffffffffffffffffffffffffffffff1673ffffffffffffffffffffffffffffffffffffffff1663a9059cbb33836040518363ffffffff1660e01b8152600401808373ffffffffffffffffffffffffffffffffffffffff1673ffffffffffffffffffffffffffffffffffffffff16815260200182815260200192505050602060405180830381600087803b15801561097e57600080fd5b505af1158015610992573d6000803e3d6000fd5b505050506040513d60208110156109a857600080fd5b81019080805190602001909291905050505080600560003373ffffffffffffffffffffffffffffffffffffffff1673ffffffffffffffffffffffffffffffffffffffff168152602001908152602001600020600082825403925050819055506000600560003373ffffffffffffffffffffffffffffffffffffffff1673ffffffffffffffffffffffffffffffffffffffff168152602001908152602001600020541415610aa8576000600760003373ffffffffffffffffffffffffffffffffffffffff1673ffffffffffffffffffffffffffffffffffffffff16815260200190815260200160002060006101000a81548160ff0219169083151502179055505b50505050565b60086020528060005260406000206000915090505481565b60076020528060005260406000206000915054906101000a900460ff1681565b600160009054906101000a900473ffffffffffffffffffffffffffffffffffffffff1681565b6000804290506000600860008573ffffffffffffffffffffffffffffffffffffffff1673ffffffffffffffffffffffffffffffffffffffff16815260200190815260200160002054820390508092505050919050565b60096020528060005260406000206000915090505481565b60066020528060005260406000206000915054906101000a900460ff1681565b60008111610c10576040517f08c379a00000000000000000000000000000000000000000000000000000000081526004018080602001828103825260128152602001807f616d6f756e742063616e6e6f742062652030000000000000000000000000000081525060200191505060405180910390fd5b60011515600760003373ffffffffffffffffffffffffffffffffffffffff1673ffffffffffffffffffffffffffffffffffffffff16815260200190815260200160002060009054906101000a900460ff1615151415610cc5576000610c743361059f565b905080600960003373ffffffffffffffffffffffffffffffffffffffff1673ffffffffffffffffffffffffffffffffffffffff16815260200190815260200160002060008282540192505081905550505b600260009054906101000a900473ffffffffffffffffffffffffffffffffffffffff1673ffffffffffffffffffffffffffffffffffffffff166323b872dd3330846040518463ffffffff1660e01b8152600401808473ffffffffffffffffffffffffffffffffffffffff1673ffffffffffffffffffffffffffffffffffffffff1681526020018373ffffffffffffffffffffffffffffffffffffffff1673ffffffffffffffffffffffffffffffffffffffff1681526020018281526020019350505050602060405180830381600087803b158015610da257600080fd5b505af1158015610db6573d6000803e3d6000fd5b505050506040513d6020811015610dcc57600080fd5b81019080805190602001909291905050505080600560003373ffffffffffffffffffffffffffffffffffffffff1673ffffffffffffffffffffffffffffffffffffffff1681526020019081526020016000205401600560003373ffffffffffffffffffffffffffffffffffffffff1673ffffffffffffffffffffffffffffffffffffffff1681526020019081526020016000208190555042600860003373ffffffffffffffffffffffffffffffffffffffff1673ffffffffffffffffffffffffffffffffffffffff16815260200190815260200160002081905550600660003373ffffffffffffffffffffffffffffffffffffffff1673ffffffffffffffffffffffffffffffffffffffff16815260200190815260200160002060009054906101000a900460ff16610f5f5760043390806001815401808255809150509060018203906000526020600020016000909192909190916101000a81548173ffffffffffffffffffffffffffffffffffffffff021916908373ffffffffffffffffffffffffffffffffffffffff160217905550505b6001600760003373ffffffffffffffffffffffffffffffffffffffff1673ffffffffffffffffffffffffffffffffffffffff16815260200190815260200160002060006101000a81548160ff0219169083151502179055506001600660003373ffffffffffffffffffffffffffffffffffffffff1673ffffffffffffffffffffffffffffffffffffffff16815260200190815260200160002060006101000a81548160ff02191690831515021790555050565b600061101d3361059f565b9050600081118061106d57506000600960003373ffffffffffffffffffffffffffffffffffffffff1673ffffffffffffffffffffffffffffffffffffffff16815260200190815260200160002054115b6110df576040517f08c379a00000000000000000000000000000000000000000000000000000000081526004018080602001828103825260138152602001807f4e6f7468696e6720746f2077697468647261770000000000000000000000000081525060200191505060405180910390fd5b6000600960003373ffffffffffffffffffffffffffffffffffffffff1673ffffffffffffffffffffffffffffffffffffffff16815260200190815260200160002054146111b6576000600960003373ffffffffffffffffffffffffffffffffffffffff1673ffffffffffffffffffffffffffffffffffffffff1681526020019081526020016000205490506000600960003373ffffffffffffffffffffffffffffffffffffffff1673ffffffffffffffffffffffffffffffffffffffff168152602001908152602001600020819055508082019150505b42600860003373ffffffffffffffffffffffffffffffffffffffff1673ffffffffffffffffffffffffffffffffffffffff16815260200190815260200160002081905550600360009054906101000a900473ffffffffffffffffffffffffffffffffffffffff1673ffffffffffffffffffffffffffffffffffffffff1663a9059cbb33836040518363ffffffff1660e01b8152600401808373ffffffffffffffffffffffffffffffffffffffff1673ffffffffffffffffffffffffffffffffffffffff16815260200182815260200192505050602060405180830381600087803b1580156112a357600080fd5b505af11580156112b7573d6000803e3d6000fd5b505050506040513d60208110156112cd57600080fd5b81019080805190602001909291905050505050565b600481815481106112ef57fe5b906000526020600020016000915054906101000a900473ffffffffffffffffffffffffffffffffffffffff168156fe7374616b696e672062616c616e63652063616e6e6f74206265206c657373207468616e2030a265627a7a72315820ca7f886f53e8d02166385d4672d254f0eb887bbb040759a2479d8d0be76e335364736f6c63430005110032",
  "source": "pragma solidity ^0.5.0;\r\n\r\nimport './RWD.sol';\r\nimport './Tether.sol';\r\n\r\n\r\n\r\ncontract DecentralBank {\r\n    string public name = \"Decentral Bank\";\r\n    address public owner;\r\n    Tether public tether;  //bringing in the smart contract\r\n    RWD public rwd;\r\n\r\n    address[] public stakers;\r\n\r\n    //keepint track of amount the customers are staking\r\n    mapping(address => uint256) public stakingBalance;\r\n\r\n    mapping(address => bool) public hasStaked;\r\n\r\n    //stores the status of staking for every customer\r\n    mapping(address => bool) public isStaking;\r\n    \r\n    //stores the start time for every customer whenever the customer stakes or unstakes tokens\r\n    mapping(address => uint256) public startTime;\r\n\r\n    //keeps track of the total yield earned till any point by the different customers\r\n    mapping(address => uint256) public  totalYield;\r\n\r\n\r\n\r\n    constructor(RWD _rwd ,Tether _tether) public {\r\n        rwd= _rwd;\r\n        tether= _tether;\r\n        owner = msg.sender;\r\n    }\r\n\r\n//third party transfer\r\nfunction depositTokens(uint256 _amount) public {\r\n\r\n  //require staking amount to be greater than 0\r\n  require(_amount > 0 ,'amount cannot be 0');\r\n\r\n  //if the customer has tokens staked at the point , then calculating and updating the yield\r\n  if(isStaking[msg.sender] == true) {\r\n\r\n      uint toTransfer = calculateYieldTotal(msg.sender);\r\n      totalYield[msg.sender] += toTransfer;\r\n  }\r\n\r\n //Transfer the tether tokens to this contract address for lending\r\n  tether.transferFrom(msg.sender, address(this), _amount);\r\n\r\n  //update staking balance\r\n  stakingBalance[msg.sender] = stakingBalance[msg.sender] + _amount;\r\n\r\n  //noting the time for staking token of the customer\r\n  startTime[msg.sender] = block.timestamp;\r\n\r\n  //checking if this is there firt time staking and so adding int the array accordingly\r\n  if(!hasStaked[msg.sender]) {\r\n      stakers.push(msg.sender);\r\n  }\r\n \r\n isStaking[msg.sender]=true;\r\n hasStaked[msg.sender]=true;\r\n\r\n}\r\n\r\n\r\n//Unstake tokens\r\nfunction unstakeTokens(uint256 _amount) public{\r\n\r\n    uint balance=stakingBalance[msg.sender];\r\n\r\n    require(\r\n        isStaking[msg.sender] = true &&\r\n        balance > 0,\r\n        'staking balance cannot be less than 0'\r\n        );\r\n\r\n    //calculating the yield earned by the customer before unstaking tokens and updating it \r\n    uint yieldTransfer = calculateYieldTotal(msg.sender);\r\n    totalYield[msg.sender] += yieldTransfer;\r\n    startTime[msg.sender] = block.timestamp;\r\n    uint balTransfer = _amount;\r\n    _amount = 0;\r\n\r\n    //transferring the staked tokens back into the msg.senders account from the decentral bank\r\n     tether.transfer(msg.sender,balTransfer);\r\n\r\n    //updating staking features\r\n    stakingBalance[msg.sender]-= balTransfer;\r\n    if(stakingBalance[msg.sender] == 0) {\r\n\r\n    isStaking[msg.sender]=false;\r\n\r\n    }\r\n}\r\n\r\n    //function to calculate the time period for whcih the yield is to be calculated\r\n    function calculateYieldTime(address user) public view returns(uint256){\r\n        uint256 end = block.timestamp;\r\n        uint256 totalTime = end - startTime[user];\r\n        return totalTime;\r\n    }\r\n\r\n    \r\n    //function to calculate the total yield\r\n    function calculateYieldTotal(address user) public view returns(uint256) {\r\n        uint256 time = calculateYieldTime(user) * 10**18;\r\n        uint256 rate = 86400;\r\n        uint256 timeRate = time / rate;\r\n        uint256 rawYield = (stakingBalance[user] * timeRate) / 10**18;\r\n        return rawYield;\r\n    }\r\n\r\n      \r\n      //function to withdraw the yield earned by the customer into the customers reward wallet as per customer's wish\r\n      function withdrawYield() public {\r\n        uint256 toTransfer = calculateYieldTotal(msg.sender);\r\n\r\n        require(\r\n            toTransfer > 0 ||\r\n            totalYield[msg.sender] > 0,\r\n            \"Nothing to withdraw\"\r\n            );\r\n            \r\n        if(totalYield[msg.sender] != 0){\r\n            uint256 oldBalance = totalYield[msg.sender];\r\n            totalYield[msg.sender] = 0;\r\n            toTransfer += oldBalance;\r\n        }\r\n\r\n        startTime[msg.sender] = block.timestamp;\r\n        rwd.transfer(msg.sender, toTransfer);\r\n    }\r\n\r\n}\r\n",
  "sourcePath": "C:\\Users\\Hp\\Desktop\\DAPP\\defi-staking-app-starter-main\\defi-staking-app-starter\\src\\contracts\\DecentralBank.sol",
  "compiler": {
    "name": "solc",
    "version": "0.5.17+commit.d19bba13.Emscripten.clang"
  },
  "schemaVersion": "3.4.3",
  "updatedAt": "2021-11-18T10:11:37.439Z",
  "networkType": "ethereum",
  "devdoc": {
    "methods": {}
  },
  "userdoc": {
    "methods": {}
  }
}